{
  "contractName": "Dex",
  "abi": [
    {
      "anonymous": false,
      "inputs": [
        {
          "indexed": false,
          "internalType": "address",
          "name": "from",
          "type": "address"
        },
        {
          "indexed": false,
          "internalType": "uint256",
          "name": "amount",
          "type": "uint256"
        },
        {
          "indexed": false,
          "internalType": "uint256",
          "name": "timestamp",
          "type": "uint256"
        }
      ],
      "name": "DepositEth",
      "type": "event"
    },
    {
      "anonymous": false,
      "inputs": [
        {
          "indexed": false,
          "internalType": "address",
          "name": "from",
          "type": "address"
        },
        {
          "indexed": false,
          "internalType": "address",
          "name": "token",
          "type": "address"
        },
        {
          "indexed": false,
          "internalType": "uint256",
          "name": "amount",
          "type": "uint256"
        },
        {
          "indexed": false,
          "internalType": "uint256",
          "name": "timestamp",
          "type": "uint256"
        }
      ],
      "name": "DepositToken",
      "type": "event"
    },
    {
      "anonymous": false,
      "inputs": [
        {
          "indexed": false,
          "internalType": "address",
          "name": "token",
          "type": "address"
        },
        {
          "indexed": false,
          "internalType": "string",
          "name": "tokenName",
          "type": "string"
        },
        {
          "indexed": false,
          "internalType": "uint256",
          "name": "timestamp",
          "type": "uint256"
        }
      ],
      "name": "TokenAddedToSystem",
      "type": "event"
    },
    {
      "anonymous": false,
      "inputs": [
        {
          "indexed": false,
          "internalType": "address",
          "name": "to",
          "type": "address"
        },
        {
          "indexed": false,
          "internalType": "uint256",
          "name": "amount",
          "type": "uint256"
        },
        {
          "indexed": false,
          "internalType": "uint256",
          "name": "timestamp",
          "type": "uint256"
        }
      ],
      "name": "WithdrawEth",
      "type": "event"
    },
    {
      "anonymous": false,
      "inputs": [
        {
          "indexed": false,
          "internalType": "address",
          "name": "to",
          "type": "address"
        },
        {
          "indexed": false,
          "internalType": "address",
          "name": "token",
          "type": "address"
        },
        {
          "indexed": false,
          "internalType": "uint256",
          "name": "amount",
          "type": "uint256"
        },
        {
          "indexed": false,
          "internalType": "uint256",
          "name": "timestamp",
          "type": "uint256"
        }
      ],
      "name": "WithdrawToken",
      "type": "event"
    },
    {
      "inputs": [
        {
          "internalType": "address",
          "name": "token",
          "type": "address"
        },
        {
          "internalType": "string",
          "name": "tokenName",
          "type": "string"
        }
      ],
      "name": "addTokenToDex",
      "outputs": [],
      "stateMutability": "nonpayable",
      "type": "function"
    },
    {
      "inputs": [
        {
          "internalType": "address",
          "name": "token",
          "type": "address"
        }
      ],
      "name": "getTokenListedInDex",
      "outputs": [
        {
          "internalType": "address",
          "name": "",
          "type": "address"
        }
      ],
      "stateMutability": "view",
      "type": "function",
      "constant": true
    },
    {
      "inputs": [],
      "name": "depositEth",
      "outputs": [],
      "stateMutability": "payable",
      "type": "function",
      "payable": true
    },
    {
      "inputs": [
        {
          "internalType": "uint256",
          "name": "amount",
          "type": "uint256"
        }
      ],
      "name": "withdrawEth",
      "outputs": [],
      "stateMutability": "nonpayable",
      "type": "function"
    },
    {
      "inputs": [],
      "name": "getEthBalance",
      "outputs": [
        {
          "internalType": "uint256",
          "name": "",
          "type": "uint256"
        }
      ],
      "stateMutability": "nonpayable",
      "type": "function"
    },
    {
      "inputs": [
        {
          "internalType": "address",
          "name": "token",
          "type": "address"
        },
        {
          "internalType": "uint256",
          "name": "amount",
          "type": "uint256"
        }
      ],
      "name": "depositToken",
      "outputs": [],
      "stateMutability": "nonpayable",
      "type": "function"
    },
    {
      "inputs": [
        {
          "internalType": "address",
          "name": "token",
          "type": "address"
        },
        {
          "internalType": "uint256",
          "name": "amount",
          "type": "uint256"
        }
      ],
      "name": "withdrawToken",
      "outputs": [],
      "stateMutability": "nonpayable",
      "type": "function"
    },
    {
      "inputs": [
        {
          "internalType": "address",
          "name": "token",
          "type": "address"
        }
      ],
      "name": "getTokenBalance",
      "outputs": [
        {
          "internalType": "uint256",
          "name": "",
          "type": "uint256"
        }
      ],
      "stateMutability": "nonpayable",
      "type": "function"
    },
    {
      "inputs": [
        {
          "internalType": "address",
          "name": "token",
          "type": "address"
        },
        {
          "internalType": "uint256",
          "name": "priceInWei",
          "type": "uint256"
        },
        {
          "internalType": "uint256",
          "name": "amount",
          "type": "uint256"
        },
        {
          "internalType": "address",
          "name": "maker",
          "type": "address"
        }
      ],
      "name": "buyLimit",
      "outputs": [],
      "stateMutability": "nonpayable",
      "type": "function"
    },
    {
      "inputs": [
        {
          "internalType": "address",
          "name": "token",
          "type": "address"
        }
      ],
      "name": "getBuyOrdersBook",
      "outputs": [
        {
          "internalType": "uint256[]",
          "name": "",
          "type": "uint256[]"
        },
        {
          "internalType": "uint256[]",
          "name": "",
          "type": "uint256[]"
        }
      ],
      "stateMutability": "view",
      "type": "function",
      "constant": true
    }
  ],
  "bytecode": "0x608060405234801561001057600080fd5b50611786806100206000396000f3fe6080604052600436106100915760003560e01c806370ed0ada1161005957806370ed0ada146102605780639e281a981461028b578063a568ce1f146102e6578063c311d049146103ce578063f779af251461040957610091565b8063338b5dea1461009657806338d9a4af146100f15780633aecd0e314610176578063439370b1146101db5780635d2a981a146101e5575b600080fd5b3480156100a257600080fd5b506100ef600480360360408110156100b957600080fd5b81019080803573ffffffffffffffffffffffffffffffffffffffff169060200190929190803590602001909291905050506104f7565b005b3480156100fd57600080fd5b506101746004803603608081101561011457600080fd5b81019080803573ffffffffffffffffffffffffffffffffffffffff1690602001909291908035906020019092919080359060200190929190803573ffffffffffffffffffffffffffffffffffffffff1690602001909291905050506107a5565b005b34801561018257600080fd5b506101c56004803603602081101561019957600080fd5b81019080803573ffffffffffffffffffffffffffffffffffffffff169060200190929190505050610c07565b6040518082815260200191505060405180910390f35b6101e3610c8d565b005b3480156101f157600080fd5b506102346004803603602081101561020857600080fd5b81019080803573ffffffffffffffffffffffffffffffffffffffff169060200190929190505050610d38565b604051808273ffffffffffffffffffffffffffffffffffffffff16815260200191505060405180910390f35b34801561026c57600080fd5b50610275610da4565b6040518082815260200191505060405180910390f35b34801561029757600080fd5b506102e4600480360360408110156102ae57600080fd5b81019080803573ffffffffffffffffffffffffffffffffffffffff16906020019092919080359060200190929190505050610dea565b005b3480156102f257600080fd5b506103cc6004803603604081101561030957600080fd5b81019080803573ffffffffffffffffffffffffffffffffffffffff1690602001909291908035906020019064010000000081111561034657600080fd5b82018360208201111561035857600080fd5b8035906020019184600183028401116401000000008311171561037a57600080fd5b91908080601f016020809104026020016040519081016040528093929190818152602001838380828437600081840152601f19601f820116905080830192505050505050509192919290505050611141565b005b3480156103da57600080fd5b50610407600480360360208110156103f157600080fd5b81019080803590602001909291905050506112df565b005b34801561041557600080fd5b506104586004803603602081101561042c57600080fd5b81019080803573ffffffffffffffffffffffffffffffffffffffff169060200190929190505050611420565b604051808060200180602001838103835285818151815260200191508051906020019060200280838360005b8381101561049f578082015181840152602081019050610484565b50505050905001838103825284818151815260200191508051906020019060200280838360005b838110156104e15780820151818401526020810190506104c6565b5050505090500194505050505060405180910390f35b6000829050818173ffffffffffffffffffffffffffffffffffffffff1663dd62ed3e33306040518363ffffffff1660e01b8152600401808373ffffffffffffffffffffffffffffffffffffffff1681526020018273ffffffffffffffffffffffffffffffffffffffff1681526020019250505060206040518083038186803b15801561058257600080fd5b505afa158015610596573d6000803e3d6000fd5b505050506040513d60208110156105ac57600080fd5b810190808051906020019092919050505010156105c857600080fd5b8073ffffffffffffffffffffffffffffffffffffffff166323b872dd3330856040518463ffffffff1660e01b8152600401808473ffffffffffffffffffffffffffffffffffffffff1681526020018373ffffffffffffffffffffffffffffffffffffffff1681526020018281526020019350505050602060405180830381600087803b15801561065757600080fd5b505af115801561066b573d6000803e3d6000fd5b505050506040513d602081101561068157600080fd5b810190808051906020019092919050505061069b57600080fd5b81600160003373ffffffffffffffffffffffffffffffffffffffff1673ffffffffffffffffffffffffffffffffffffffff16815260200190815260200160002060008573ffffffffffffffffffffffffffffffffffffffff1673ffffffffffffffffffffffffffffffffffffffff168152602001908152602001600020600082825401925050819055507fbb01c612a93e37305a5f1f7b8ed63ea61211be444f722915b9dc827c0bdbffcc33848442604051808573ffffffffffffffffffffffffffffffffffffffff1681526020018473ffffffffffffffffffffffffffffffffffffffff16815260200183815260200182815260200194505050505060405180910390a1505050565b600260008573ffffffffffffffffffffffffffffffffffffffff1673ffffffffffffffffffffffffffffffffffffffff16815260200190815260200160002060020160008481526020019081526020016000206004016000815480929190600101919050555060405180604001604052808381526020018273ffffffffffffffffffffffffffffffffffffffff16815250600260008673ffffffffffffffffffffffffffffffffffffffff1673ffffffffffffffffffffffffffffffffffffffff16815260200190815260200160002060020160008581526020019081526020016000206002016000600260008873ffffffffffffffffffffffffffffffffffffffff1673ffffffffffffffffffffffffffffffffffffffff16815260200190815260200160002060020160008781526020019081526020016000206004015481526020019081526020016000206000820151816000015560208201518160010160006101000a81548173ffffffffffffffffffffffffffffffffffffffff021916908373ffffffffffffffffffffffffffffffffffffffff1602179055509050506001600260008673ffffffffffffffffffffffffffffffffffffffff1673ffffffffffffffffffffffffffffffffffffffff1681526020019081526020016000206002016000858152602001908152602001600020600401541415610c01576001600260008673ffffffffffffffffffffffffffffffffffffffff1673ffffffffffffffffffffffffffffffffffffffff168152602001908152602001600020600201600085815260200190815260200160002060030181905550600260008573ffffffffffffffffffffffffffffffffffffffff1673ffffffffffffffffffffffffffffffffffffffff168152602001908152602001600020600601600081548092919060010191905055506000600260008673ffffffffffffffffffffffffffffffffffffffff1673ffffffffffffffffffffffffffffffffffffffff1681526020019081526020016000206004015490506000600260008773ffffffffffffffffffffffffffffffffffffffff1673ffffffffffffffffffffffffffffffffffffffff1681526020019081526020016000206005015490506000811480610af057508481115b15610bfe576000821415610bfd5784600260008873ffffffffffffffffffffffffffffffffffffffff1673ffffffffffffffffffffffffffffffffffffffff1681526020019081526020016000206004018190555084600260008873ffffffffffffffffffffffffffffffffffffffff1673ffffffffffffffffffffffffffffffffffffffff1681526020019081526020016000206002016000878152602001908152602001600020600001819055506000600260008873ffffffffffffffffffffffffffffffffffffffff1673ffffffffffffffffffffffffffffffffffffffff1681526020019081526020016000206002016000878152602001908152602001600020600101819055505b5b50505b50505050565b6000600160003373ffffffffffffffffffffffffffffffffffffffff1673ffffffffffffffffffffffffffffffffffffffff16815260200190815260200160002060008373ffffffffffffffffffffffffffffffffffffffff1673ffffffffffffffffffffffffffffffffffffffff168152602001908152602001600020549050919050565b346000803373ffffffffffffffffffffffffffffffffffffffff1673ffffffffffffffffffffffffffffffffffffffff168152602001908152602001600020600082825401925050819055507f3d6c7010fd9052242236f257ef6a66bcaa07145fc53f17b6d5cd1f51bc344e1a333442604051808473ffffffffffffffffffffffffffffffffffffffff168152602001838152602001828152602001935050505060405180910390a1565b6000600260008373ffffffffffffffffffffffffffffffffffffffff1673ffffffffffffffffffffffffffffffffffffffff16815260200190815260200160002060000160009054906101000a900473ffffffffffffffffffffffffffffffffffffffff169050919050565b60008060003373ffffffffffffffffffffffffffffffffffffffff1673ffffffffffffffffffffffffffffffffffffffff16815260200190815260200160002054905090565b6000829050600082600160003373ffffffffffffffffffffffffffffffffffffffff1673ffffffffffffffffffffffffffffffffffffffff16815260200190815260200160002060008673ffffffffffffffffffffffffffffffffffffffff1673ffffffffffffffffffffffffffffffffffffffff16815260200190815260200160002054031015610e7b57600080fd5b600160003373ffffffffffffffffffffffffffffffffffffffff1673ffffffffffffffffffffffffffffffffffffffff16815260200190815260200160002060008473ffffffffffffffffffffffffffffffffffffffff1673ffffffffffffffffffffffffffffffffffffffff1681526020019081526020016000205482600160003373ffffffffffffffffffffffffffffffffffffffff1673ffffffffffffffffffffffffffffffffffffffff16815260200190815260200160002060008673ffffffffffffffffffffffffffffffffffffffff1673ffffffffffffffffffffffffffffffffffffffff16815260200190815260200160002054031115610f8257600080fd5b81600160003373ffffffffffffffffffffffffffffffffffffffff1673ffffffffffffffffffffffffffffffffffffffff16815260200190815260200160002060008573ffffffffffffffffffffffffffffffffffffffff1673ffffffffffffffffffffffffffffffffffffffff168152602001908152602001600020600082825403925050819055508073ffffffffffffffffffffffffffffffffffffffff1663a9059cbb33846040518363ffffffff1660e01b8152600401808373ffffffffffffffffffffffffffffffffffffffff16815260200182815260200192505050602060405180830381600087803b15801561107d57600080fd5b505af1158015611091573d6000803e3d6000fd5b505050506040513d60208110156110a757600080fd5b81019080805190602001909291905050506110c157600080fd5b7fa69fc39b702a6e8195370ae2252cc11b4445837cc4abe15ac39123f2f2d8770d33848442604051808573ffffffffffffffffffffffffffffffffffffffff1681526020018473ffffffffffffffffffffffffffffffffffffffff16815260200183815260200182815260200194505050505060405180910390a1505050565b81600260008473ffffffffffffffffffffffffffffffffffffffff1673ffffffffffffffffffffffffffffffffffffffff16815260200190815260200160002060000160006101000a81548173ffffffffffffffffffffffffffffffffffffffff021916908373ffffffffffffffffffffffffffffffffffffffff16021790555080600260008473ffffffffffffffffffffffffffffffffffffffff1673ffffffffffffffffffffffffffffffffffffffff16815260200190815260200160002060010190805190602001906112189291906116b3565b507f324f61291005cb955ff648175d09bae7ebaa5fea9226b49b1394ec255aac80ec828242604051808473ffffffffffffffffffffffffffffffffffffffff16815260200180602001838152602001828103825284818151815260200191508051906020019080838360005b8381101561129f578082015181840152602081019050611284565b50505050905090810190601f1680156112cc5780820380516001836020036101000a031916815260200191505b5094505050505060405180910390a15050565b6000816000803373ffffffffffffffffffffffffffffffffffffffff1673ffffffffffffffffffffffffffffffffffffffff1681526020019081526020016000205403101561132d57600080fd5b806000803373ffffffffffffffffffffffffffffffffffffffff1673ffffffffffffffffffffffffffffffffffffffff168152602001908152602001600020600082825403925050819055503373ffffffffffffffffffffffffffffffffffffffff166108fc829081150290604051600060405180830381858888f193505050501580156113bf573d6000803e3d6000fd5b507f6d3e5f2222ab57d0981e3ce9d7e33e36f0a1d9e4e7019cf3119af24dcc9083de338242604051808473ffffffffffffffffffffffffffffffffffffffff168152602001838152602001828152602001935050505060405180910390a150565b6060806000600260008573ffffffffffffffffffffffffffffffffffffffff1673ffffffffffffffffffffffffffffffffffffffff16815260200190815260200160002090506060816006015467ffffffffffffffff8111801561148357600080fd5b506040519080825280602002602001820160405280156114b25781602001602082028036833780820191505090505b5090506060826006015467ffffffffffffffff811180156114d257600080fd5b506040519080825280602002602001820160405280156115015781602001602082028036833780820191505090505b509050600083600501549050600080600260008a73ffffffffffffffffffffffffffffffffffffffff1673ffffffffffffffffffffffffffffffffffffffff1681526020019081526020016000206004015411156116a3575b600260008973ffffffffffffffffffffffffffffffffffffffff1673ffffffffffffffffffffffffffffffffffffffff1681526020019081526020016000206004015482116116a257818482815181106115b057fe5b6020026020010181815250506000808660020160008581526020019081526020016000206003015490505b866002016000858152602001908152602001600020600401548111611638578660020160008581526020019081526020016000206002016000828152602001908152602001600020600001548201915080806001019150506115db565b8185848151811061164557fe5b602002602001018181525050866002016000858152602001908152602001600020600001548414156116785750506116a2565b8660020160008581526020019081526020016000206000015493508280600101935050505061155a565b5b8383965096505050505050915091565b828054600181600116156101000203166002900490600052602060002090601f016020900481019282601f106116f457805160ff1916838001178555611722565b82800160010185558215611722579182015b82811115611721578251825591602001919060010190611706565b5b50905061172f9190611733565b5090565b5b8082111561174c576000816000905550600101611734565b509056fea2646970667358221220bb7ffb47739dcf4682d1c46551d29fba91211919c2ddd4004574d0b7e3b1768e64736f6c63430007010033",
  "immutableReferences": {},
  "source": "pragma solidity 0.7.1;\n\nimport \"@openzeppelin/contracts/token/ERC20/IERC20.sol\";\n\ncontract Dex {\n    // Events ----------------------\n\n    event DepositEth(address from, uint256 amount, uint256 timestamp);\n    event WithdrawEth(address to, uint256 amount, uint256 timestamp);\n    event DepositToken(\n        address from,\n        address token,\n        uint256 amount,\n        uint256 timestamp\n    );\n    event WithdrawToken(\n        address to,\n        address token,\n        uint256 amount,\n        uint256 timestamp\n    );\n    event TokenAddedToSystem(\n        address token,\n        string tokenName,\n        uint256 timestamp\n    );\n\n    // Balances mappings ----------------------\n\n    mapping(address => uint256) balance_eth;\n    mapping(address => mapping(address => uint256)) balance_token;\n\n    // Order book Struct ----------------------\n\n    struct Offer {\n        uint256 amount;\n        address maker;\n    }\n\n    struct OrderBook {\n        uint256 max_price;\n        uint256 low_price;\n        mapping(uint256 => Offer) offers;\n        uint256 offers_key;\n        uint256 offers_length;\n    }\n\n    struct Token {\n        address token;\n        string tokenName;\n        mapping(uint256 => OrderBook) buy_book;\n        mapping(uint256 => OrderBook) sell_book;\n        uint256 buy_price;\n        uint256 lowest_buy_price;\n        uint256 buy_volume;\n        uint256 sell_price;\n        uint256 highest_sell_price;\n        uint256 sell_volume;\n    }\n\n    mapping(address => Token) order_book;\n\n    // uint8 order_book_index;\n\n    // Tokens listing functions ----------------------\n\n    function addTokenToDex(address token, string memory tokenName) public {\n        // require(order_book[token].token != address(0));\n        order_book[token].token = token;\n        order_book[token].tokenName = tokenName;\n        emit TokenAddedToSystem(token, tokenName, block.timestamp);\n    }\n\n    // getToken we dont have, becouse to expensive\n    // For testing we get added token by key thais token address\n    function getTokenListedInDex(address token) public view returns (address) {\n        // TODO check not null\n        // TODO just admin can call\n        return order_book[token].token;\n    }\n\n    // Deposit functions ----------------------------\n\n    function depositEth() public payable {\n        balance_eth[msg.sender] += msg.value;\n\n        emit DepositEth(msg.sender, msg.value, block.timestamp);\n    }\n\n    function withdrawEth(uint256 amount) public {\n        require(balance_eth[msg.sender] - amount >= 0);\n        balance_eth[msg.sender] -= amount;\n        msg.sender.transfer(amount);\n        emit WithdrawEth(msg.sender, amount, block.timestamp);\n    }\n\n    function getEthBalance() public returns (uint256) {\n        return balance_eth[msg.sender];\n    }\n\n    function depositToken(address token, uint256 amount) public {\n        IERC20 token_instance = IERC20(token);\n        require(token_instance.allowance(msg.sender, address(this)) >= amount);\n        require(token_instance.transferFrom(msg.sender, address(this), amount));\n        balance_token[msg.sender][token] += amount;\n        emit DepositToken(msg.sender, token, amount, block.timestamp);\n    }\n\n    function withdrawToken(address token, uint256 amount) public {\n        IERC20 token_instance = IERC20(token);\n        require(balance_token[msg.sender][token] - amount >= 0);\n        // TODO check non negative values\n        require(\n            balance_token[msg.sender][token] - amount <=\n                balance_token[msg.sender][token]\n        );\n        balance_token[msg.sender][token] -= amount;\n        require(token_instance.transfer(msg.sender, amount));\n        emit WithdrawToken(msg.sender, token, amount, block.timestamp);\n    }\n\n    function getTokenBalance(address token) public returns (uint256) {\n        return balance_token[msg.sender][token];\n    }\n\n    // Orders funtions --------------------------------\n\n    // Buy limit -------------------\n\n    function buyLimit(\n        address token,\n        uint256 priceInWei,\n        uint256 amount,\n        address maker\n    ) public {\n        // 1. Icrease buy offer length\n        order_book[token].buy_book[priceInWei].offers_length++;\n        // 2. Add buy offer\n        order_book[token].buy_book[priceInWei].offers[order_book[token]\n            .buy_book[priceInWei]\n            .offers_length] = Offer(amount, maker);\n        // 3. If First order\n        if (order_book[token].buy_book[priceInWei].offers_length == 1) {\n            order_book[token].buy_book[priceInWei].offers_key = 1;\n            order_book[token].buy_volume++;\n\n            uint256 currentBuyPrice = order_book[token].buy_price;\n            uint256 lowestBuyPrice = order_book[token].lowest_buy_price;\n\n            if (lowestBuyPrice == 0 || lowestBuyPrice > priceInWei) {\n                // 3.1 First entry\n                if (currentBuyPrice == 0) {\n                    order_book[token].buy_price = priceInWei;\n                    order_book[token].buy_book[priceInWei].max_price = priceInWei;\n                    order_book[token].buy_book[priceInWei].low_price = 0;\n                }\n            }\n        }\n    }\n\n    // Order book functios ---------------------\n\n    function getBuyOrdersBook(address token)\n        public\n        view\n        returns (uint256[] memory, uint256[] memory)\n    {\n        Token storage loadedToken = order_book[token];\n        uint256[] memory buyOrderPrices = new uint256[](loadedToken.buy_volume);\n        uint256[] memory buyOrdersVolume = new uint256[](loadedToken.buy_volume);\n\n        uint256 lowestBuyPrice = loadedToken.lowest_buy_price;\n        uint256 counter = 0;\n\n        if (order_book[token].buy_price > 0) {\n            while (lowestBuyPrice <= order_book[token].buy_price) {\n                buyOrderPrices[counter] = lowestBuyPrice;\n                uint256 priceVolume = 0;\n                uint256 offers_key = loadedToken.buy_book[lowestBuyPrice].offers_key;\n\n                while (\n                    offers_key <= loadedToken.buy_book[lowestBuyPrice].offers_length\n                ) {\n                    priceVolume += loadedToken.buy_book[lowestBuyPrice].offers[offers_key].amount;\n                    offers_key++;\n                }\n\n                buyOrdersVolume[counter] = priceVolume;\n\n                if (\n                    lowestBuyPrice == loadedToken.buy_book[lowestBuyPrice].max_price\n                ) {\n                    break;\n                } else {\n                    lowestBuyPrice = loadedToken.buy_book[lowestBuyPrice].max_price;\n                }\n                counter++;\n            }\n        }\n        return(buyOrderPrices, buyOrdersVolume);\n    }\n}\n",
  "sourcePath": "/Users/tarasrohovets/Success/blockchain/dex_onchain_solidity_angular/contracts/Dex.sol",
  "compiler": {
    "name": "solc",
    "version": "0.7.1+commit.f4a555be.Emscripten.clang"
  },
  "schemaVersion": "3.2.4",
  "updatedAt": "2020-11-15T23:38:15.060Z",
  "networkType": "ethereum",
  "devdoc": {
    "kind": "dev",
    "methods": {},
    "version": 1
  },
  "userdoc": {
    "kind": "user",
    "methods": {},
    "version": 1
  }
}