{
  "contractName": "Dex",
  "abi": [
    {
      "inputs": [
        {
          "internalType": "address",
          "name": "_owner",
          "type": "address"
        }
      ],
      "stateMutability": "nonpayable",
      "type": "constructor"
    },
    {
      "anonymous": false,
      "inputs": [
        {
          "indexed": false,
          "internalType": "address",
          "name": "from",
          "type": "address"
        },
        {
          "indexed": false,
          "internalType": "uint256",
          "name": "amount",
          "type": "uint256"
        },
        {
          "indexed": false,
          "internalType": "uint256",
          "name": "timestamp",
          "type": "uint256"
        }
      ],
      "name": "DepositEth",
      "type": "event"
    },
    {
      "anonymous": false,
      "inputs": [
        {
          "indexed": false,
          "internalType": "address",
          "name": "from",
          "type": "address"
        },
        {
          "indexed": false,
          "internalType": "address",
          "name": "token",
          "type": "address"
        },
        {
          "indexed": false,
          "internalType": "uint256",
          "name": "amount",
          "type": "uint256"
        },
        {
          "indexed": false,
          "internalType": "uint256",
          "name": "timestamp",
          "type": "uint256"
        }
      ],
      "name": "DepositToken",
      "type": "event"
    },
    {
      "anonymous": false,
      "inputs": [
        {
          "indexed": false,
          "internalType": "address",
          "name": "oldOwner",
          "type": "address"
        },
        {
          "indexed": false,
          "internalType": "address",
          "name": "newOwner",
          "type": "address"
        }
      ],
      "name": "OwnerChanged",
      "type": "event"
    },
    {
      "anonymous": false,
      "inputs": [
        {
          "indexed": false,
          "internalType": "address",
          "name": "newOwner",
          "type": "address"
        }
      ],
      "name": "OwnerNominated",
      "type": "event"
    },
    {
      "anonymous": false,
      "inputs": [
        {
          "indexed": false,
          "internalType": "address",
          "name": "token",
          "type": "address"
        },
        {
          "indexed": false,
          "internalType": "string",
          "name": "tokenName",
          "type": "string"
        },
        {
          "indexed": false,
          "internalType": "uint256",
          "name": "timestamp",
          "type": "uint256"
        }
      ],
      "name": "TokenAddedToSystem",
      "type": "event"
    },
    {
      "anonymous": false,
      "inputs": [
        {
          "indexed": false,
          "internalType": "address",
          "name": "to",
          "type": "address"
        },
        {
          "indexed": false,
          "internalType": "uint256",
          "name": "amount",
          "type": "uint256"
        },
        {
          "indexed": false,
          "internalType": "uint256",
          "name": "timestamp",
          "type": "uint256"
        }
      ],
      "name": "WithdrawEth",
      "type": "event"
    },
    {
      "anonymous": false,
      "inputs": [
        {
          "indexed": false,
          "internalType": "address",
          "name": "to",
          "type": "address"
        },
        {
          "indexed": false,
          "internalType": "address",
          "name": "token",
          "type": "address"
        },
        {
          "indexed": false,
          "internalType": "uint256",
          "name": "amount",
          "type": "uint256"
        },
        {
          "indexed": false,
          "internalType": "uint256",
          "name": "timestamp",
          "type": "uint256"
        }
      ],
      "name": "WithdrawToken",
      "type": "event"
    },
    {
      "inputs": [],
      "name": "acceptOwnershit",
      "outputs": [],
      "stateMutability": "nonpayable",
      "type": "function"
    },
    {
      "inputs": [
        {
          "internalType": "address",
          "name": "_owner",
          "type": "address"
        }
      ],
      "name": "nominateNewOwner",
      "outputs": [],
      "stateMutability": "nonpayable",
      "type": "function"
    },
    {
      "inputs": [],
      "name": "nominated",
      "outputs": [
        {
          "internalType": "address",
          "name": "",
          "type": "address"
        }
      ],
      "stateMutability": "view",
      "type": "function",
      "constant": true
    },
    {
      "inputs": [],
      "name": "owner",
      "outputs": [
        {
          "internalType": "address",
          "name": "",
          "type": "address"
        }
      ],
      "stateMutability": "view",
      "type": "function",
      "constant": true
    },
    {
      "inputs": [
        {
          "internalType": "address",
          "name": "token",
          "type": "address"
        },
        {
          "internalType": "string",
          "name": "tokenName",
          "type": "string"
        }
      ],
      "name": "addTokenToDex",
      "outputs": [],
      "stateMutability": "nonpayable",
      "type": "function"
    },
    {
      "inputs": [
        {
          "internalType": "address",
          "name": "token",
          "type": "address"
        }
      ],
      "name": "getTokenListedInDex",
      "outputs": [
        {
          "components": [
            {
              "internalType": "address",
              "name": "token",
              "type": "address"
            },
            {
              "internalType": "string",
              "name": "tokenName",
              "type": "string"
            },
            {
              "internalType": "uint256",
              "name": "buy_price",
              "type": "uint256"
            },
            {
              "internalType": "uint256",
              "name": "lowest_buy_price",
              "type": "uint256"
            },
            {
              "internalType": "uint256",
              "name": "buy_volume",
              "type": "uint256"
            },
            {
              "internalType": "uint256",
              "name": "sell_price",
              "type": "uint256"
            },
            {
              "internalType": "uint256",
              "name": "highest_sell_price",
              "type": "uint256"
            },
            {
              "internalType": "uint256",
              "name": "sell_volume",
              "type": "uint256"
            }
          ],
          "internalType": "struct Dex.Token",
          "name": "",
          "type": "tuple"
        }
      ],
      "stateMutability": "view",
      "type": "function",
      "constant": true
    },
    {
      "inputs": [],
      "name": "depositEth",
      "outputs": [],
      "stateMutability": "payable",
      "type": "function",
      "payable": true
    },
    {
      "inputs": [
        {
          "internalType": "uint256",
          "name": "amount",
          "type": "uint256"
        }
      ],
      "name": "withdrawEth",
      "outputs": [],
      "stateMutability": "nonpayable",
      "type": "function"
    },
    {
      "inputs": [],
      "name": "getEthBalance",
      "outputs": [
        {
          "internalType": "uint256",
          "name": "",
          "type": "uint256"
        }
      ],
      "stateMutability": "nonpayable",
      "type": "function"
    },
    {
      "inputs": [
        {
          "internalType": "address",
          "name": "token",
          "type": "address"
        },
        {
          "internalType": "uint256",
          "name": "amount",
          "type": "uint256"
        }
      ],
      "name": "depositToken",
      "outputs": [],
      "stateMutability": "nonpayable",
      "type": "function"
    },
    {
      "inputs": [
        {
          "internalType": "address",
          "name": "token",
          "type": "address"
        },
        {
          "internalType": "uint256",
          "name": "amount",
          "type": "uint256"
        }
      ],
      "name": "withdrawToken",
      "outputs": [],
      "stateMutability": "nonpayable",
      "type": "function"
    },
    {
      "inputs": [
        {
          "internalType": "address",
          "name": "token",
          "type": "address"
        }
      ],
      "name": "getTokenBalance",
      "outputs": [
        {
          "internalType": "uint256",
          "name": "",
          "type": "uint256"
        }
      ],
      "stateMutability": "nonpayable",
      "type": "function"
    }
  ],
  "bytecode": "0x60806040523480156200001157600080fd5b5060405162001b7338038062001b73833981810160405281019062000037919062000146565b80600073ffffffffffffffffffffffffffffffffffffffff168173ffffffffffffffffffffffffffffffffffffffff161415620000ab576040517f08c379a0000000000000000000000000000000000000000000000000000000008152600401620000a29062000203565b60405180910390fd5b806000806101000a81548173ffffffffffffffffffffffffffffffffffffffff021916908373ffffffffffffffffffffffffffffffffffffffff1602179055507fb532073b38c83145e3e5135377a08bf9aab55bc0fd7c1179cd4fb995d2a5159c6000826040516200011f929190620001d6565b60405180910390a15050620002c0565b6000815190506200014081620002a6565b92915050565b6000602082840312156200015957600080fd5b600062000169848285016200012f565b91505092915050565b6200017d816200026a565b82525050565b6200018e8162000236565b82525050565b6000620001a360108362000225565b91507f6164726573732063616e742062652030000000000000000000000000000000006000830152602082019050919050565b6000604082019050620001ed600083018562000172565b620001fc602083018462000183565b9392505050565b600060208201905081810360008301526200021e8162000194565b9050919050565b600082825260208201905092915050565b600062000243826200024a565b9050919050565b600073ffffffffffffffffffffffffffffffffffffffff82169050919050565b600062000277826200027e565b9050919050565b60006200028b8262000292565b9050919050565b60006200029f826200024a565b9050919050565b620002b18162000236565b8114620002bd57600080fd5b50565b6118a380620002d06000396000f3fe6080604052600436106100a75760003560e01c80638450ccb5116100645780638450ccb5146101ad5780638c1147f3146101d85780638da5cb5b146101ef5780639e281a981461021a578063a568ce1f14610243578063c311d0491461026c576100a7565b80631627540c146100ac578063338b5dea146100d55780633aecd0e3146100fe578063439370b11461013b5780635d2a981a1461014557806370ed0ada14610182575b600080fd5b3480156100b857600080fd5b506100d360048036038101906100ce9190611160565b610295565b005b3480156100e157600080fd5b506100fc60048036038101906100f791906111dd565b610318565b005b34801561010a57600080fd5b5061012560048036038101906101209190611160565b610518565b60405161013291906116b6565b60405180910390f35b61014361059e565b005b34801561015157600080fd5b5061016c60048036038101906101679190611160565b610628565b6040516101799190611694565b60405180910390f35b34801561018e57600080fd5b506101976107bc565b6040516101a491906116b6565b60405180910390f35b3480156101b957600080fd5b506101c2610803565b6040516101cf91906114cd565b60405180910390f35b3480156101e457600080fd5b506101ed610829565b005b3480156101fb57600080fd5b506102046109da565b60405161021191906114cd565b60405180910390f35b34801561022657600080fd5b50610241600480360381019061023c91906111dd565b6109fe565b005b34801561024f57600080fd5b5061026a60048036038101906102659190611189565b610cf8565b005b34801561027857600080fd5b50610293600480360381019061028e9190611242565b610e0f565b005b61029d610f30565b80600160006101000a81548173ffffffffffffffffffffffffffffffffffffffff021916908373ffffffffffffffffffffffffffffffffffffffff1602179055507f906a1c6bd7e3091ea86693dd029a831c19049ce77f1dce2ce0bab1cacbabce228160405161030d91906114cd565b60405180910390a150565b6000829050818173ffffffffffffffffffffffffffffffffffffffff1663dd62ed3e33306040518363ffffffff1660e01b81526004016103599291906114e8565b60206040518083038186803b15801561037157600080fd5b505afa158015610385573d6000803e3d6000fd5b505050506040513d601f19601f820116820180604052508101906103a9919061126b565b10156103b457600080fd5b8073ffffffffffffffffffffffffffffffffffffffff166323b872dd3330856040518463ffffffff1660e01b81526004016103f193929190611511565b602060405180830381600087803b15801561040b57600080fd5b505af115801561041f573d6000803e3d6000fd5b505050506040513d601f19601f820116820180604052508101906104439190611219565b61044c57600080fd5b81600360003373ffffffffffffffffffffffffffffffffffffffff1673ffffffffffffffffffffffffffffffffffffffff16815260200190815260200160002060008573ffffffffffffffffffffffffffffffffffffffff1673ffffffffffffffffffffffffffffffffffffffff168152602001908152602001600020600082825401925050819055507fbb01c612a93e37305a5f1f7b8ed63ea61211be444f722915b9dc827c0bdbffcc3384844260405161050b9493929190611548565b60405180910390a1505050565b6000600360003373ffffffffffffffffffffffffffffffffffffffff1673ffffffffffffffffffffffffffffffffffffffff16815260200190815260200160002060008373ffffffffffffffffffffffffffffffffffffffff1673ffffffffffffffffffffffffffffffffffffffff168152602001908152602001600020549050919050565b34600260003373ffffffffffffffffffffffffffffffffffffffff1673ffffffffffffffffffffffffffffffffffffffff168152602001908152602001600020600082825401925050819055507f3d6c7010fd9052242236f257ef6a66bcaa07145fc53f17b6d5cd1f51bc344e1a33344260405161061e939291906115b6565b60405180910390a1565b610630610fc0565b6000600460008473ffffffffffffffffffffffffffffffffffffffff1673ffffffffffffffffffffffffffffffffffffffff168152602001908152602001600020905080604051806101000160405290816000820160009054906101000a900473ffffffffffffffffffffffffffffffffffffffff1673ffffffffffffffffffffffffffffffffffffffff1673ffffffffffffffffffffffffffffffffffffffff168152602001600182018054600181600116156101000203166002900480601f01602080910402602001604051908101604052809291908181526020018280546001816001161561010002031660029004801561076f5780601f106107445761010080835404028352916020019161076f565b820191906000526020600020905b81548152906001019060200180831161075257829003601f168201915b505050505081526020016002820154815260200160038201548152602001600482015481526020016005820154815260200160068201548152602001600782015481525050915050919050565b6000600260003373ffffffffffffffffffffffffffffffffffffffff1673ffffffffffffffffffffffffffffffffffffffff16815260200190815260200160002054905090565b600160009054906101000a900473ffffffffffffffffffffffffffffffffffffffff1681565b600160009054906101000a900473ffffffffffffffffffffffffffffffffffffffff1673ffffffffffffffffffffffffffffffffffffffff163373ffffffffffffffffffffffffffffffffffffffff16146108b9576040517f08c379a00000000000000000000000000000000000000000000000000000000081526004016108b090611674565b60405180910390fd5b7fb532073b38c83145e3e5135377a08bf9aab55bc0fd7c1179cd4fb995d2a5159c60008054906101000a900473ffffffffffffffffffffffffffffffffffffffff16600160009054906101000a900473ffffffffffffffffffffffffffffffffffffffff1660405161092c9291906115ed565b60405180910390a1600160009054906101000a900473ffffffffffffffffffffffffffffffffffffffff166000806101000a81548173ffffffffffffffffffffffffffffffffffffffff021916908373ffffffffffffffffffffffffffffffffffffffff1602179055506000600160006101000a81548173ffffffffffffffffffffffffffffffffffffffff021916908373ffffffffffffffffffffffffffffffffffffffff160217905550565b60008054906101000a900473ffffffffffffffffffffffffffffffffffffffff1681565b6000829050600082600360003373ffffffffffffffffffffffffffffffffffffffff1673ffffffffffffffffffffffffffffffffffffffff16815260200190815260200160002060008673ffffffffffffffffffffffffffffffffffffffff1673ffffffffffffffffffffffffffffffffffffffff16815260200190815260200160002054031015610a8f57600080fd5b600360003373ffffffffffffffffffffffffffffffffffffffff1673ffffffffffffffffffffffffffffffffffffffff16815260200190815260200160002060008473ffffffffffffffffffffffffffffffffffffffff1673ffffffffffffffffffffffffffffffffffffffff1681526020019081526020016000205482600360003373ffffffffffffffffffffffffffffffffffffffff1673ffffffffffffffffffffffffffffffffffffffff16815260200190815260200160002060008673ffffffffffffffffffffffffffffffffffffffff1673ffffffffffffffffffffffffffffffffffffffff16815260200190815260200160002054031115610b9657600080fd5b81600360003373ffffffffffffffffffffffffffffffffffffffff1673ffffffffffffffffffffffffffffffffffffffff16815260200190815260200160002060008573ffffffffffffffffffffffffffffffffffffffff1673ffffffffffffffffffffffffffffffffffffffff168152602001908152602001600020600082825403925050819055508073ffffffffffffffffffffffffffffffffffffffff1663a9059cbb33846040518363ffffffff1660e01b8152600401610c5b92919061158d565b602060405180830381600087803b158015610c7557600080fd5b505af1158015610c89573d6000803e3d6000fd5b505050506040513d601f19601f82011682018060405250810190610cad9190611219565b610cb657600080fd5b7fa69fc39b702a6e8195370ae2252cc11b4445837cc4abe15ac39123f2f2d8770d33848442604051610ceb9493929190611548565b60405180910390a1505050565b81600460008473ffffffffffffffffffffffffffffffffffffffff1673ffffffffffffffffffffffffffffffffffffffff16815260200190815260200160002060000160006101000a81548173ffffffffffffffffffffffffffffffffffffffff021916908373ffffffffffffffffffffffffffffffffffffffff16021790555080600460008473ffffffffffffffffffffffffffffffffffffffff1673ffffffffffffffffffffffffffffffffffffffff1681526020019081526020016000206001019080519060200190610dcf92919061101b565b507f324f61291005cb955ff648175d09bae7ebaa5fea9226b49b1394ec255aac80ec828242604051610e0393929190611616565b60405180910390a15050565b600081600260003373ffffffffffffffffffffffffffffffffffffffff1673ffffffffffffffffffffffffffffffffffffffff16815260200190815260200160002054031015610e5e57600080fd5b80600260003373ffffffffffffffffffffffffffffffffffffffff1673ffffffffffffffffffffffffffffffffffffffff168152602001908152602001600020600082825403925050819055503373ffffffffffffffffffffffffffffffffffffffff166108fc829081150290604051600060405180830381858888f19350505050158015610ef1573d6000803e3d6000fd5b507f6d3e5f2222ab57d0981e3ce9d7e33e36f0a1d9e4e7019cf3119af24dcc9083de338242604051610f25939291906115b6565b60405180910390a150565b60008054906101000a900473ffffffffffffffffffffffffffffffffffffffff1673ffffffffffffffffffffffffffffffffffffffff163373ffffffffffffffffffffffffffffffffffffffff1614610fbe576040517f08c379a0000000000000000000000000000000000000000000000000000000008152600401610fb590611654565b60405180910390fd5b565b604051806101000160405280600073ffffffffffffffffffffffffffffffffffffffff168152602001606081526020016000815260200160008152602001600081526020016000815260200160008152602001600081525090565b828054600181600116156101000203166002900490600052602060002090601f016020900481019282601f1061105c57805160ff191683800117855561108a565b8280016001018555821561108a579182015b8281111561108957825182559160200191906001019061106e565b5b509050611097919061109b565b5090565b5b808211156110b457600081600090555060010161109c565b5090565b6000813590506110c781611828565b92915050565b6000815190506110dc8161183f565b92915050565b600082601f8301126110f357600080fd5b8135611106611101826116fe565b6116d1565b9150808252602083016020830185838301111561112257600080fd5b61112d8382846117d5565b50505092915050565b60008135905061114581611856565b92915050565b60008151905061115a81611856565b92915050565b60006020828403121561117257600080fd5b6000611180848285016110b8565b91505092915050565b6000806040838503121561119c57600080fd5b60006111aa858286016110b8565b925050602083013567ffffffffffffffff8111156111c757600080fd5b6111d3858286016110e2565b9150509250929050565b600080604083850312156111f057600080fd5b60006111fe858286016110b8565b925050602061120f85828601611136565b9150509250929050565b60006020828403121561122b57600080fd5b6000611239848285016110cd565b91505092915050565b60006020828403121561125457600080fd5b600061126284828501611136565b91505092915050565b60006020828403121561127d57600080fd5b600061128b8482850161114b565b91505092915050565b61129d8161179f565b82525050565b6112ac81611757565b82525050565b6112bb81611757565b82525050565b60006112cc8261172a565b6112d68185611735565b93506112e68185602086016117e4565b6112ef81611817565b840191505092915050565b60006113058261172a565b61130f8185611746565b935061131f8185602086016117e4565b61132881611817565b840191505092915050565b6000611340602a83611746565b91507f4e6f7420616c6c6f7765642c20636f6e747261637420646f65736e742062656c60008301527f6f6e6720746f20796f75000000000000000000000000000000000000000000006020830152604082019050919050565b60006113a6602783611746565b91507f596f75206d757374206265206e6f6d696e61746564206265666f726520796f7560008301527f20616363657074000000000000000000000000000000000000000000000000006020830152604082019050919050565b60006101008301600083015161141860008601826112a3565b506020830151848203602086015261143082826112c1565b915050604083015161144560408601826114af565b50606083015161145860608601826114af565b50608083015161146b60808601826114af565b5060a083015161147e60a08601826114af565b5060c083015161149160c08601826114af565b5060e08301516114a460e08601826114af565b508091505092915050565b6114b881611795565b82525050565b6114c781611795565b82525050565b60006020820190506114e260008301846112b2565b92915050565b60006040820190506114fd6000830185611294565b61150a60208301846112b2565b9392505050565b60006060820190506115266000830186611294565b61153360208301856112b2565b61154060408301846114be565b949350505050565b600060808201905061155d6000830187611294565b61156a60208301866112b2565b61157760408301856114be565b61158460608301846114be565b95945050505050565b60006040820190506115a26000830185611294565b6115af60208301846114be565b9392505050565b60006060820190506115cb6000830186611294565b6115d860208301856114be565b6115e560408301846114be565b949350505050565b600060408201905061160260008301856112b2565b61160f60208301846112b2565b9392505050565b600060608201905061162b60008301866112b2565b818103602083015261163d81856112fa565b905061164c60408301846114be565b949350505050565b6000602082019050818103600083015261166d81611333565b9050919050565b6000602082019050818103600083015261168d81611399565b9050919050565b600060208201905081810360008301526116ae81846113ff565b905092915050565b60006020820190506116cb60008301846114be565b92915050565b6000604051905081810181811067ffffffffffffffff821117156116f457600080fd5b8060405250919050565b600067ffffffffffffffff82111561171557600080fd5b601f19601f8301169050602081019050919050565b600081519050919050565b600082825260208201905092915050565b600082825260208201905092915050565b600061176282611775565b9050919050565b60008115159050919050565b600073ffffffffffffffffffffffffffffffffffffffff82169050919050565b6000819050919050565b60006117aa826117b1565b9050919050565b60006117bc826117c3565b9050919050565b60006117ce82611775565b9050919050565b82818337600083830152505050565b60005b838110156118025780820151818401526020810190506117e7565b83811115611811576000848401525b50505050565b6000601f19601f8301169050919050565b61183181611757565b811461183c57600080fd5b50565b61184881611769565b811461185357600080fd5b50565b61185f81611795565b811461186a57600080fd5b5056fea264697066735822122038f7ed4ec2428fa07b3e0851782cb59973945e55964ed7e3f031639220a858ee64736f6c63430007010033",
  "immutableReferences": {},
  "source": "pragma solidity 0.7.1;\r\npragma experimental ABIEncoderV2;\r\n\r\nimport \"./Owner.sol\";\r\nimport \"@openzeppelin/contracts/token/ERC20/IERC20.sol\";\r\n\r\ncontract Dex is Owner {\r\n    // contructor\r\n\r\n    constructor(address _owner) public Owner(_owner){\r\n\r\n    }\r\n    \r\n        // Events ----------------------\r\n\r\n    event DepositEth(address from, uint256 amount, uint256 timestamp);\r\n    event WithdrawEth(address to, uint256 amount, uint256 timestamp);\r\n    event DepositToken(\r\n        address from,\r\n        address token,\r\n        uint256 amount,\r\n        uint256 timestamp\r\n    );\r\n    event WithdrawToken(\r\n        address to,\r\n        address token,\r\n        uint256 amount,\r\n        uint256 timestamp\r\n    );\r\n    event TokenAddedToSystem(\r\n        address token,\r\n        string tokenName,\r\n        uint256 timestamp\r\n    );\r\n\r\n    // Balances mappings ----------------------\r\n\r\n    mapping(address => uint256) balance_eth;\r\n    mapping(address => mapping(address => uint256)) balance_token;\r\n\r\n    // Order book Struct ----------------------\r\n\r\n    struct Offer {\r\n        uint256 amount;\r\n        address maker;\r\n    }\r\n\r\n    struct OrderBook {\r\n        uint256 max_price;\r\n        uint256 low_price;\r\n        mapping(uint256 => Offer) offers;\r\n        uint256 offers_key;\r\n        uint256 offers_length;\r\n    }\r\n\r\n    struct Token {\r\n        address token;\r\n        string tokenName;\r\n        //mapping(uint256 => OrderBook) buy_book;\r\n        //mapping(uint256 => OrderBook) sell_book;\r\n        uint256 buy_price;\r\n        uint256 lowest_buy_price;\r\n        uint256 buy_volume;\r\n        uint256 sell_price;\r\n        uint256 highest_sell_price;\r\n        uint256 sell_volume;\r\n    }\r\n\r\n    mapping(address => Token) order_book;\r\n\r\n    // uint8 order_book_index;\r\n\r\n    // Tokens listing functions ----------------------\r\n\r\n    function addTokenToDex(address token, string memory tokenName) public {\r\n        // require(order_book[token].token != address(0));\r\n        order_book[token].token = token;\r\n        order_book[token].tokenName = tokenName;\r\n        emit TokenAddedToSystem(token, tokenName, block.timestamp);\r\n    }\r\n\r\n    function getTokenListedInDex(address token) public view returns (Token memory) {\r\n        // TODO check not null\r\n        // TODO just admin can call\r\n        // tokenInfo.token = order_book[token].token;\r\n        // tokenInfo.tokenName = order_book[token].tokenName;\r\n        // return tokenInfo;\r\n        Token storage tokenInfo = order_book[token];\r\n        return tokenInfo;\r\n    }\r\n\r\n    // Deposit functions ----------------------------\r\n\r\n    function depositEth() public payable {\r\n        balance_eth[msg.sender] += msg.value;\r\n\r\n        emit DepositEth(msg.sender, msg.value, block.timestamp);\r\n    }\r\n\r\n    function withdrawEth(uint256 amount) public {\r\n        require(balance_eth[msg.sender] - amount >= 0);\r\n        balance_eth[msg.sender] -= amount;\r\n        msg.sender.transfer(amount);\r\n        emit WithdrawEth(msg.sender, amount, block.timestamp);\r\n    }\r\n\r\n    function getEthBalance() public returns (uint256) {\r\n        return balance_eth[msg.sender];\r\n    }\r\n\r\n    function depositToken(address token, uint256 amount) public {\r\n        IERC20 token_instance = IERC20(token);\r\n        require(token_instance.allowance(msg.sender, address(this)) >= amount);\r\n        require(token_instance.transferFrom(msg.sender, address(this), amount));\r\n        balance_token[msg.sender][token] += amount;\r\n        emit DepositToken(msg.sender, token, amount, block.timestamp);\r\n    }\r\n\r\n    function withdrawToken(address token, uint256 amount) public {\r\n        IERC20 token_instance = IERC20(token);\r\n        require(balance_token[msg.sender][token] - amount >= 0);\r\n        // TODO check non negative values\r\n        require(\r\n            balance_token[msg.sender][token] - amount <=\r\n                balance_token[msg.sender][token]\r\n        );\r\n        balance_token[msg.sender][token] -= amount;\r\n        require(token_instance.transfer(msg.sender, amount));\r\n        emit WithdrawToken(msg.sender, token, amount, block.timestamp);\r\n    }\r\n\r\n    function getTokenBalance(address token) public returns (uint256) {\r\n        return balance_token[msg.sender][token];\r\n    }\r\n\r\n    // Orders funtions --------------------------------\r\n\r\n    // Buy limit -------------------\r\n\r\n    // function buyLimit(\r\n    //     address token,\r\n    //     uint256 priceInWei,\r\n    //     uint256 amount,\r\n    //     address maker\r\n    // ) public {\r\n    //     // 1. Icrease buy offer length\r\n    //     order_book[token].buy_book[priceInWei].offers_length++;\r\n    //     // 2. Add buy offer\r\n    //     order_book[token].buy_book[priceInWei].offers[\r\n    //         order_book[token].buy_book[priceInWei].offers_length\r\n    //     ] = Offer(amount, maker);\r\n    //     // 3. If First order\r\n    //     if (order_book[token].buy_book[priceInWei].offers_length == 1) {\r\n    //         order_book[token].buy_book[priceInWei].offers_key = 1;\r\n    //         order_book[token].buy_volume++;\r\n\r\n    //         uint256 currentBuyPrice = order_book[token].buy_price;\r\n    //         uint256 lowestBuyPrice = order_book[token].lowest_buy_price;\r\n\r\n    //         if (lowestBuyPrice == 0 || lowestBuyPrice > priceInWei) {\r\n    //             // 3.1 First entry\r\n    //             if (currentBuyPrice == 0) {\r\n    //                 order_book[token].buy_price = priceInWei;\r\n    //                 order_book[token].buy_book[priceInWei]\r\n    //                     .max_price = priceInWei;\r\n    //                 order_book[token].buy_book[priceInWei].low_price = 0;\r\n    //             }\r\n    //         }\r\n    //     }\r\n    // }\r\n\r\n    // Order book functios ---------------------\r\n\r\n    // function getBuyOrdersBook(address token)\r\n    //     public\r\n    //     view\r\n    //     returns (uint256[] memory, uint256[] memory)\r\n    // {\r\n    //     Token storage loadedToken = order_book[token];\r\n    //     uint256[] memory buyOrderPrices = new uint256[](loadedToken.buy_volume);\r\n    //     uint256[] memory buyOrdersVolume =\r\n    //         new uint256[](loadedToken.buy_volume);\r\n\r\n    //     uint256 lowestBuyPrice = loadedToken.lowest_buy_price;\r\n    //     uint256 counter = 0;\r\n\r\n    //     if (order_book[token].buy_price > 0) {\r\n    //         while (lowestBuyPrice <= order_book[token].buy_price) {\r\n    //             buyOrderPrices[counter] = lowestBuyPrice;\r\n    //             uint256 priceVolume = 0;\r\n    //             uint256 offers_key =\r\n    //                 loadedToken.buy_book[lowestBuyPrice].offers_key;\r\n\r\n    //             while (\r\n    //                 offers_key <=\r\n    //                 loadedToken.buy_book[lowestBuyPrice].offers_length\r\n    //             ) {\r\n    //                 priceVolume += loadedToken.buy_book[lowestBuyPrice].offers[\r\n    //                     offers_key\r\n    //                 ]\r\n    //                     .amount;\r\n    //                 offers_key++;\r\n    //             }\r\n\r\n    //             buyOrdersVolume[counter] = priceVolume;\r\n\r\n    //             if (\r\n    //                 lowestBuyPrice ==\r\n    //                 loadedToken.buy_book[lowestBuyPrice].max_price\r\n    //             ) {\r\n    //                 break;\r\n    //             } else {\r\n    //                 lowestBuyPrice = loadedToken.buy_book[lowestBuyPrice]\r\n    //                     .max_price;\r\n    //             }\r\n    //             counter++;\r\n    //         }\r\n    //     }\r\n    //     return (buyOrderPrices, buyOrdersVolume);\r\n    // }\r\n}\r\n",
  "sourcePath": "C:/Git/dex_onchain_solidity_angular/contracts/Dex.sol",
  "compiler": {
    "name": "solc",
    "version": "0.7.1+commit.f4a555be.Emscripten.clang"
  },
  "schemaVersion": "3.3.4",
  "updatedAt": "2021-03-14T19:19:04.875Z",
  "networkType": "ethereum",
  "devdoc": {
    "kind": "dev",
    "methods": {},
    "version": 1
  },
  "userdoc": {
    "kind": "user",
    "methods": {},
    "version": 1
  }
}