{
  "contractName": "Dex",
  "abi": [
    {
      "anonymous": false,
      "inputs": [
        {
          "indexed": false,
          "internalType": "address",
          "name": "from",
          "type": "address"
        },
        {
          "indexed": false,
          "internalType": "uint256",
          "name": "amount",
          "type": "uint256"
        },
        {
          "indexed": false,
          "internalType": "uint256",
          "name": "timestamp",
          "type": "uint256"
        }
      ],
      "name": "DepositEth",
      "type": "event"
    },
    {
      "anonymous": false,
      "inputs": [
        {
          "indexed": false,
          "internalType": "address",
          "name": "to",
          "type": "address"
        },
        {
          "indexed": false,
          "internalType": "uint256",
          "name": "amount",
          "type": "uint256"
        },
        {
          "indexed": false,
          "internalType": "uint256",
          "name": "timestamp",
          "type": "uint256"
        }
      ],
      "name": "WithdrawEth",
      "type": "event"
    },
    {
      "inputs": [],
      "name": "depositEth",
      "outputs": [],
      "stateMutability": "payable",
      "type": "function"
    },
    {
      "inputs": [
        {
          "internalType": "uint256",
          "name": "amount",
          "type": "uint256"
        }
      ],
      "name": "withdrawEth",
      "outputs": [],
      "stateMutability": "nonpayable",
      "type": "function"
    },
    {
      "inputs": [],
      "name": "getEthBalance",
      "outputs": [
        {
          "internalType": "uint256",
          "name": "",
          "type": "uint256"
        }
      ],
      "stateMutability": "nonpayable",
      "type": "function"
    },
    {
      "inputs": [],
      "name": "depositToken",
      "outputs": [],
      "stateMutability": "nonpayable",
      "type": "function"
    },
    {
      "inputs": [],
      "name": "withdrawToken",
      "outputs": [],
      "stateMutability": "nonpayable",
      "type": "function"
    },
    {
      "inputs": [],
      "name": "getTokenBalance",
      "outputs": [],
      "stateMutability": "nonpayable",
      "type": "function"
    }
  ],
  "bytecode": "0x608060405234801561001057600080fd5b5061037d806100206000396000f3fe6080604052600436106100555760003560e01c8063439370b11461005a57806370ed0ada1461006457806382b2e2571461008f578063c311d049146100a6578063c89039c5146100e1578063ca628c78146100f8575b600080fd5b61006261010f565b005b34801561007057600080fd5b506100796101ba565b6040518082815260200191505060405180910390f35b34801561009b57600080fd5b506100a4610200565b005b3480156100b257600080fd5b506100df600480360360208110156100c957600080fd5b8101908080359060200190929190505050610202565b005b3480156100ed57600080fd5b506100f6610343565b005b34801561010457600080fd5b5061010d610345565b005b346000803373ffffffffffffffffffffffffffffffffffffffff1673ffffffffffffffffffffffffffffffffffffffff168152602001908152602001600020600082825401925050819055507f3d6c7010fd9052242236f257ef6a66bcaa07145fc53f17b6d5cd1f51bc344e1a333442604051808473ffffffffffffffffffffffffffffffffffffffff168152602001838152602001828152602001935050505060405180910390a1565b60008060003373ffffffffffffffffffffffffffffffffffffffff1673ffffffffffffffffffffffffffffffffffffffff16815260200190815260200160002054905090565b565b6000816000803373ffffffffffffffffffffffffffffffffffffffff1673ffffffffffffffffffffffffffffffffffffffff1681526020019081526020016000205403101561025057600080fd5b806000803373ffffffffffffffffffffffffffffffffffffffff1673ffffffffffffffffffffffffffffffffffffffff168152602001908152602001600020600082825403925050819055503373ffffffffffffffffffffffffffffffffffffffff166108fc829081150290604051600060405180830381858888f193505050501580156102e2573d6000803e3d6000fd5b507f6d3e5f2222ab57d0981e3ce9d7e33e36f0a1d9e4e7019cf3119af24dcc9083de338242604051808473ffffffffffffffffffffffffffffffffffffffff168152602001838152602001828152602001935050505060405180910390a150565b565b56fea2646970667358221220d2951b48a14a9fdc57f096841489b7db93a76aec637f4ae45290f4c1ab4830d864736f6c63430007010033",
  "immutableReferences": {},
  "source": "pragma solidity 0.7.1;\n\ncontract Dex {\n    // Events\n    event DepositEth(address from, uint256 amount, uint256 timestamp);\n    event WithdrawEth(address to, uint256 amount, uint256 timestamp);\n    // Balances\n    mapping(address => uint256) balance_eth;\n    mapping(address => mapping(address => uint256)) balance_token;\n\n    // Deposit\n\n    function depositEth() public payable {\n        balance_eth[msg.sender] += msg.value;\n\n        emit DepositEth(msg.sender, msg.value, block.timestamp);\n    }\n\n    function withdrawEth(uint256 amount) public {\n        require(balance_eth[msg.sender] - amount >= 0);\n        balance_eth[msg.sender] -= amount;\n        msg.sender.transfer(amount);\n        emit WithdrawEth(msg.sender, amount, block.timestamp);\n    }\n\n    function getEthBalance() public returns (uint256) {\n        return balance_eth[msg.sender];\n    }\n\n    function depositToken() public {}\n\n    function withdrawToken() public {}\n\n    function getTokenBalance() public {}\n}\n",
  "sourcePath": "/Users/tarasrohovets/Success/blockchain/dex_onchain_solidity_angular/contracts/Dex.sol",
  "compiler": {
    "name": "solc",
    "version": "0.7.1+commit.f4a555be.Emscripten.clang"
  },
  "schemaVersion": "3.2.4",
  "updatedAt": "2020-11-01T22:14:03.485Z",
  "devdoc": {
    "kind": "dev",
    "methods": {},
    "version": 1
  },
  "userdoc": {
    "kind": "user",
    "methods": {},
    "version": 1
  }
}