{
  "contractName": "Dex",
  "abi": [
    {
      "anonymous": false,
      "inputs": [
        {
          "indexed": false,
          "internalType": "address",
          "name": "from",
          "type": "address"
        },
        {
          "indexed": false,
          "internalType": "uint256",
          "name": "amount",
          "type": "uint256"
        },
        {
          "indexed": false,
          "internalType": "uint256",
          "name": "timestamp",
          "type": "uint256"
        }
      ],
      "name": "DepositEth",
      "type": "event"
    },
    {
      "anonymous": false,
      "inputs": [
        {
          "indexed": false,
          "internalType": "address",
          "name": "from",
          "type": "address"
        },
        {
          "indexed": false,
          "internalType": "address",
          "name": "token",
          "type": "address"
        },
        {
          "indexed": false,
          "internalType": "uint256",
          "name": "amount",
          "type": "uint256"
        },
        {
          "indexed": false,
          "internalType": "uint256",
          "name": "timestamp",
          "type": "uint256"
        }
      ],
      "name": "DepositToken",
      "type": "event"
    },
    {
      "anonymous": false,
      "inputs": [
        {
          "indexed": false,
          "internalType": "address",
          "name": "to",
          "type": "address"
        },
        {
          "indexed": false,
          "internalType": "uint256",
          "name": "amount",
          "type": "uint256"
        },
        {
          "indexed": false,
          "internalType": "uint256",
          "name": "timestamp",
          "type": "uint256"
        }
      ],
      "name": "WithdrawEth",
      "type": "event"
    },
    {
      "anonymous": false,
      "inputs": [
        {
          "indexed": false,
          "internalType": "address",
          "name": "to",
          "type": "address"
        },
        {
          "indexed": false,
          "internalType": "address",
          "name": "token",
          "type": "address"
        },
        {
          "indexed": false,
          "internalType": "uint256",
          "name": "amount",
          "type": "uint256"
        },
        {
          "indexed": false,
          "internalType": "uint256",
          "name": "timestamp",
          "type": "uint256"
        }
      ],
      "name": "WithdrawToken",
      "type": "event"
    },
    {
      "inputs": [],
      "name": "depositEth",
      "outputs": [],
      "stateMutability": "payable",
      "type": "function"
    },
    {
      "inputs": [
        {
          "internalType": "uint256",
          "name": "amount",
          "type": "uint256"
        }
      ],
      "name": "withdrawEth",
      "outputs": [],
      "stateMutability": "nonpayable",
      "type": "function"
    },
    {
      "inputs": [],
      "name": "getEthBalance",
      "outputs": [
        {
          "internalType": "uint256",
          "name": "",
          "type": "uint256"
        }
      ],
      "stateMutability": "nonpayable",
      "type": "function"
    },
    {
      "inputs": [
        {
          "internalType": "address",
          "name": "token",
          "type": "address"
        },
        {
          "internalType": "uint256",
          "name": "amount",
          "type": "uint256"
        }
      ],
      "name": "depositToken",
      "outputs": [],
      "stateMutability": "nonpayable",
      "type": "function"
    },
    {
      "inputs": [
        {
          "internalType": "address",
          "name": "token",
          "type": "address"
        },
        {
          "internalType": "uint256",
          "name": "amount",
          "type": "uint256"
        }
      ],
      "name": "withdrawToken",
      "outputs": [],
      "stateMutability": "nonpayable",
      "type": "function"
    },
    {
      "inputs": [
        {
          "internalType": "address",
          "name": "token",
          "type": "address"
        }
      ],
      "name": "getTokenBalance",
      "outputs": [
        {
          "internalType": "uint256",
          "name": "",
          "type": "uint256"
        }
      ],
      "stateMutability": "nonpayable",
      "type": "function"
    }
  ],
  "bytecode": "0x608060405234801561001057600080fd5b50610ad8806100206000396000f3fe6080604052600436106100555760003560e01c8063338b5dea1461005a5780633aecd0e3146100b5578063439370b11461011a57806370ed0ada146101245780639e281a981461014f578063c311d049146101aa575b600080fd5b34801561006657600080fd5b506100b36004803603604081101561007d57600080fd5b81019080803573ffffffffffffffffffffffffffffffffffffffff169060200190929190803590602001909291905050506101e5565b005b3480156100c157600080fd5b50610104600480360360208110156100d857600080fd5b81019080803573ffffffffffffffffffffffffffffffffffffffff169060200190929190505050610493565b6040518082815260200191505060405180910390f35b610122610519565b005b34801561013057600080fd5b506101396105c4565b6040518082815260200191505060405180910390f35b34801561015b57600080fd5b506101a86004803603604081101561017257600080fd5b81019080803573ffffffffffffffffffffffffffffffffffffffff1690602001909291908035906020019092919050505061060a565b005b3480156101b657600080fd5b506101e3600480360360208110156101cd57600080fd5b8101908080359060200190929190505050610961565b005b6000829050818173ffffffffffffffffffffffffffffffffffffffff1663dd62ed3e33306040518363ffffffff1660e01b8152600401808373ffffffffffffffffffffffffffffffffffffffff1681526020018273ffffffffffffffffffffffffffffffffffffffff1681526020019250505060206040518083038186803b15801561027057600080fd5b505afa158015610284573d6000803e3d6000fd5b505050506040513d602081101561029a57600080fd5b810190808051906020019092919050505010156102b657600080fd5b8073ffffffffffffffffffffffffffffffffffffffff166323b872dd3330856040518463ffffffff1660e01b8152600401808473ffffffffffffffffffffffffffffffffffffffff1681526020018373ffffffffffffffffffffffffffffffffffffffff1681526020018281526020019350505050602060405180830381600087803b15801561034557600080fd5b505af1158015610359573d6000803e3d6000fd5b505050506040513d602081101561036f57600080fd5b810190808051906020019092919050505061038957600080fd5b81600160003373ffffffffffffffffffffffffffffffffffffffff1673ffffffffffffffffffffffffffffffffffffffff16815260200190815260200160002060008573ffffffffffffffffffffffffffffffffffffffff1673ffffffffffffffffffffffffffffffffffffffff168152602001908152602001600020600082825401925050819055507fbb01c612a93e37305a5f1f7b8ed63ea61211be444f722915b9dc827c0bdbffcc33848442604051808573ffffffffffffffffffffffffffffffffffffffff1681526020018473ffffffffffffffffffffffffffffffffffffffff16815260200183815260200182815260200194505050505060405180910390a1505050565b6000600160003373ffffffffffffffffffffffffffffffffffffffff1673ffffffffffffffffffffffffffffffffffffffff16815260200190815260200160002060008373ffffffffffffffffffffffffffffffffffffffff1673ffffffffffffffffffffffffffffffffffffffff168152602001908152602001600020549050919050565b346000803373ffffffffffffffffffffffffffffffffffffffff1673ffffffffffffffffffffffffffffffffffffffff168152602001908152602001600020600082825401925050819055507f3d6c7010fd9052242236f257ef6a66bcaa07145fc53f17b6d5cd1f51bc344e1a333442604051808473ffffffffffffffffffffffffffffffffffffffff168152602001838152602001828152602001935050505060405180910390a1565b60008060003373ffffffffffffffffffffffffffffffffffffffff1673ffffffffffffffffffffffffffffffffffffffff16815260200190815260200160002054905090565b6000829050600082600160003373ffffffffffffffffffffffffffffffffffffffff1673ffffffffffffffffffffffffffffffffffffffff16815260200190815260200160002060008673ffffffffffffffffffffffffffffffffffffffff1673ffffffffffffffffffffffffffffffffffffffff1681526020019081526020016000205403101561069b57600080fd5b600160003373ffffffffffffffffffffffffffffffffffffffff1673ffffffffffffffffffffffffffffffffffffffff16815260200190815260200160002060008473ffffffffffffffffffffffffffffffffffffffff1673ffffffffffffffffffffffffffffffffffffffff1681526020019081526020016000205482600160003373ffffffffffffffffffffffffffffffffffffffff1673ffffffffffffffffffffffffffffffffffffffff16815260200190815260200160002060008673ffffffffffffffffffffffffffffffffffffffff1673ffffffffffffffffffffffffffffffffffffffff168152602001908152602001600020540311156107a257600080fd5b81600160003373ffffffffffffffffffffffffffffffffffffffff1673ffffffffffffffffffffffffffffffffffffffff16815260200190815260200160002060008573ffffffffffffffffffffffffffffffffffffffff1673ffffffffffffffffffffffffffffffffffffffff168152602001908152602001600020600082825403925050819055508073ffffffffffffffffffffffffffffffffffffffff1663a9059cbb33846040518363ffffffff1660e01b8152600401808373ffffffffffffffffffffffffffffffffffffffff16815260200182815260200192505050602060405180830381600087803b15801561089d57600080fd5b505af11580156108b1573d6000803e3d6000fd5b505050506040513d60208110156108c757600080fd5b81019080805190602001909291905050506108e157600080fd5b7fa69fc39b702a6e8195370ae2252cc11b4445837cc4abe15ac39123f2f2d8770d33848442604051808573ffffffffffffffffffffffffffffffffffffffff1681526020018473ffffffffffffffffffffffffffffffffffffffff16815260200183815260200182815260200194505050505060405180910390a1505050565b6000816000803373ffffffffffffffffffffffffffffffffffffffff1673ffffffffffffffffffffffffffffffffffffffff168152602001908152602001600020540310156109af57600080fd5b806000803373ffffffffffffffffffffffffffffffffffffffff1673ffffffffffffffffffffffffffffffffffffffff168152602001908152602001600020600082825403925050819055503373ffffffffffffffffffffffffffffffffffffffff166108fc829081150290604051600060405180830381858888f19350505050158015610a41573d6000803e3d6000fd5b507f6d3e5f2222ab57d0981e3ce9d7e33e36f0a1d9e4e7019cf3119af24dcc9083de338242604051808473ffffffffffffffffffffffffffffffffffffffff168152602001838152602001828152602001935050505060405180910390a15056fea264697066735822122071c842ad947adefe0b595ce12ed4dd4b73a8e155f7df22530dd4009b3023ec4964736f6c63430007010033",
  "immutableReferences": {},
  "source": "pragma solidity 0.7.1;\n\nimport \"@openzeppelin/contracts/token/ERC20/IERC20.sol\";\n\ncontract Dex {\n    // Events\n\n    event DepositEth(address from, uint256 amount, uint256 timestamp);\n    event WithdrawEth(address to, uint256 amount, uint256 timestamp);\n    event DepositToken(\n        address from,\n        address token,\n        uint256 amount,\n        uint256 timestamp\n    );\n    event WithdrawToken(\n        address to,\n        address token,\n        uint256 amount,\n        uint256 timestamp\n    );\n\n    // Balances\n\n    mapping(address => uint256) balance_eth;\n    mapping(address => mapping(address => uint256)) balance_token;\n\n    // Order book\n\n    struct Offer {\n        uint256 amount;\n        address maker;\n    }\n\n    struct OrderBook {\n        uint256 max_price;\n        uint256 low_price;\n        mapping(uint256 => Offer) offers;\n        uint256 offers_key;\n        uint256 offers_length;\n    }\n\n    struct Token {\n        address token;\n        mapping(uint256 => OrderBook) buy_book;\n        mapping(uint256 => OrderBook) sell_book;\n        uint256 buy_price;\n        uint256 lowest_buy_price;\n        uint256 buy_volume;\n        uint256 sell_price;\n        uint256 highest_sell_price;\n        uint256 sell_volume;\n    }\n\n    mapping(uint8 => Token) order_book;\n\n    // Deposit\n\n    function depositEth() public payable {\n        balance_eth[msg.sender] += msg.value;\n\n        emit DepositEth(msg.sender, msg.value, block.timestamp);\n    }\n\n    function withdrawEth(uint256 amount) public {\n        require(balance_eth[msg.sender] - amount >= 0);\n        balance_eth[msg.sender] -= amount;\n        msg.sender.transfer(amount);\n        emit WithdrawEth(msg.sender, amount, block.timestamp);\n    }\n\n    function getEthBalance() public returns (uint256) {\n        return balance_eth[msg.sender];\n    }\n\n    function depositToken(address token, uint256 amount) public {\n        IERC20 token_instance = IERC20(token);\n        require(token_instance.allowance(msg.sender, address(this)) >= amount);\n        require(token_instance.transferFrom(msg.sender, address(this), amount));\n        balance_token[msg.sender][token] += amount;\n        emit DepositToken(msg.sender, token, amount, block.timestamp);\n    }\n\n    function withdrawToken(address token, uint256 amount) public {\n        IERC20 token_instance = IERC20(token);\n        require(balance_token[msg.sender][token] - amount >= 0);\n        // TODO check non negative values\n        require(\n            balance_token[msg.sender][token] - amount <=\n                balance_token[msg.sender][token]\n        );\n        balance_token[msg.sender][token] -= amount;\n        require(token_instance.transfer(msg.sender, amount));\n        emit WithdrawToken(msg.sender, token, amount, block.timestamp);\n    }\n\n    function getTokenBalance(address token) public returns (uint256) {\n        return balance_token[msg.sender][token];\n    }\n}\n",
  "sourcePath": "/Users/tarasrohovets/Success/blockchain/dex_onchain_solidity_angular/contracts/Dex.sol",
  "compiler": {
    "name": "solc",
    "version": "0.7.1+commit.f4a555be.Emscripten.clang"
  },
  "schemaVersion": "3.2.4",
  "updatedAt": "2020-11-02T00:14:33.492Z",
  "devdoc": {
    "kind": "dev",
    "methods": {},
    "version": 1
  },
  "userdoc": {
    "kind": "user",
    "methods": {},
    "version": 1
  }
}